{
  "_format": "hh-sol-artifact-1",
  "contractName": "FinancialCom",
  "sourceName": "contracts/FinancialCom.sol",
  "abi": [
    {
      "inputs": [
        {
          "internalType": "int256[]",
          "name": "initialcon",
          "type": "int256[]"
        },
        {
          "internalType": "int256[]",
          "name": "finalcon",
          "type": "int256[]"
        },
        {
          "internalType": "int256[]",
          "name": "realcon",
          "type": "int256[]"
        },
        {
          "internalType": "int256",
          "name": "initialprice",
          "type": "int256"
        },
        {
          "internalType": "int256",
          "name": "finalprice",
          "type": "int256"
        },
        {
          "internalType": "string",
          "name": "date",
          "type": "string"
        },
        {
          "internalType": "address",
          "name": "customer",
          "type": "address"
        }
      ],
      "name": "FinancialCalculation",
      "outputs": [],
      "stateMutability": "nonpayable",
      "type": "function"
    },
    {
      "inputs": [
        {
          "internalType": "string",
          "name": "date",
          "type": "string"
        },
        {
          "internalType": "address",
          "name": "customer",
          "type": "address"
        }
      ],
      "name": "TotalPrice",
      "outputs": [
        {
          "internalType": "int256",
          "name": "",
          "type": "int256"
        }
      ],
      "stateMutability": "view",
      "type": "function"
    }
  ],
  "bytecode": "0x608060405234801561001057600080fd5b50610bf5806100206000396000f3fe608060405234801561001057600080fd5b50600436106100365760003560e01c806318bd5f561461003b5780631df7f4ea1461006b575b600080fd5b6100556004803603810190610050919061050f565b610087565b6040516100629190610584565b60405180910390f35b61008560048036038101906100809190610693565b6100ed565b005b6000600183604051610099919061081f565b908152602001604051809103902060008373ffffffffffffffffffffffffffffffffffffffff1673ffffffffffffffffffffffffffffffffffffffff16815260200190815260200160002054905092915050565b6000808190555060005b60908110156102eb5787818151811061011357610112610836565b5b602002602001015186828151811061012e5761012d610836565b5b60200260200101511261017d5786818151811061014e5761014d610836565b5b6020026020010151856101619190610894565b60008082825461017191906109ab565b925050819055506102d8565b8681815181106101905761018f610836565b5b60200260200101518682815181106101ab576101aa610836565b5b6020026020010151136101fa578681815181106101cb576101ca610836565b5b6020026020010151846101de9190610894565b6000808282546101ee91906109ab565b925050819055506102d7565b6103e8846102089190610894565b87828151811061021b5761021a610836565b5b602002602001015187838151811061023657610235610836565b5b60200260200101516102489190610a3f565b88838151811061025b5761025a610836565b5b60200260200101518a848151811061027657610275610836565b5b60200260200101516102889190610a3f565b6103e887896102979190610a3f565b6102a19190610894565b6102ab9190610b02565b6102b59190610894565b6102bf91906109ab565b6000808282546102cf91906109ab565b925050819055505b5b80806102e390610b76565b9150506100f7565b506000546001836040516102ff919061081f565b908152602001604051809103902060008373ffffffffffffffffffffffffffffffffffffffff1673ffffffffffffffffffffffffffffffffffffffff1681526020019081526020016000208190555050505050505050565b6000604051905090565b600080fd5b600080fd5b600080fd5b600080fd5b6000601f19601f8301169050919050565b7f4e487b7100000000000000000000000000000000000000000000000000000000600052604160045260246000fd5b6103be82610375565b810181811067ffffffffffffffff821117156103dd576103dc610386565b5b80604052505050565b60006103f0610357565b90506103fc82826103b5565b919050565b600067ffffffffffffffff82111561041c5761041b610386565b5b61042582610375565b9050602081019050919050565b82818337600083830152505050565b600061045461044f84610401565b6103e6565b9050828152602081018484840111156104705761046f610370565b5b61047b848285610432565b509392505050565b600082601f8301126104985761049761036b565b5b81356104a8848260208601610441565b91505092915050565b600073ffffffffffffffffffffffffffffffffffffffff82169050919050565b60006104dc826104b1565b9050919050565b6104ec816104d1565b81146104f757600080fd5b50565b600081359050610509816104e3565b92915050565b6000806040838503121561052657610525610361565b5b600083013567ffffffffffffffff81111561054457610543610366565b5b61055085828601610483565b9250506020610561858286016104fa565b9150509250929050565b6000819050919050565b61057e8161056b565b82525050565b60006020820190506105996000830184610575565b92915050565b600067ffffffffffffffff8211156105ba576105b9610386565b5b602082029050602081019050919050565b600080fd5b6105d98161056b565b81146105e457600080fd5b50565b6000813590506105f6816105d0565b92915050565b600061060f61060a8461059f565b6103e6565b90508083825260208201905060208402830185811115610632576106316105cb565b5b835b8181101561065b578061064788826105e7565b845260208401935050602081019050610634565b5050509392505050565b600082601f83011261067a5761067961036b565b5b813561068a8482602086016105fc565b91505092915050565b600080600080600080600060e0888a0312156106b2576106b1610361565b5b600088013567ffffffffffffffff8111156106d0576106cf610366565b5b6106dc8a828b01610665565b975050602088013567ffffffffffffffff8111156106fd576106fc610366565b5b6107098a828b01610665565b965050604088013567ffffffffffffffff81111561072a57610729610366565b5b6107368a828b01610665565b95505060606107478a828b016105e7565b94505060806107588a828b016105e7565b93505060a088013567ffffffffffffffff81111561077957610778610366565b5b6107858a828b01610483565b92505060c06107968a828b016104fa565b91505092959891949750929550565b600081519050919050565b600081905092915050565b60005b838110156107d95780820151818401526020810190506107be565b838111156107e8576000848401525b50505050565b60006107f9826107a5565b61080381856107b0565b93506108138185602086016107bb565b80840191505092915050565b600061082b82846107ee565b915081905092915050565b7f4e487b7100000000000000000000000000000000000000000000000000000000600052603260045260246000fd5b7f4e487b7100000000000000000000000000000000000000000000000000000000600052601160045260246000fd5b600061089f8261056b565b91506108aa8361056b565b9250827f7fffffffffffffffffffffffffffffffffffffffffffffffffffffffffffffff04821160008413600084131616156108e9576108e8610865565b5b817f8000000000000000000000000000000000000000000000000000000000000000058312600084126000841316161561092657610925610865565b5b827f8000000000000000000000000000000000000000000000000000000000000000058212600084136000841216161561096357610962610865565b5b827f7fffffffffffffffffffffffffffffffffffffffffffffffffffffffffffffff05821260008412600084121616156109a05761099f610865565b5b828202905092915050565b60006109b68261056b565b91506109c18361056b565b9250817f7fffffffffffffffffffffffffffffffffffffffffffffffffffffffffffffff038313600083121516156109fc576109fb610865565b5b817f8000000000000000000000000000000000000000000000000000000000000000038312600083121615610a3457610a33610865565b5b828201905092915050565b6000610a4a8261056b565b9150610a558361056b565b9250827f800000000000000000000000000000000000000000000000000000000000000001821260008412151615610a9057610a8f610865565b5b827f7fffffffffffffffffffffffffffffffffffffffffffffffffffffffffffffff018213600084121615610ac857610ac7610865565b5b828203905092915050565b7f4e487b7100000000000000000000000000000000000000000000000000000000600052601260045260246000fd5b6000610b0d8261056b565b9150610b188361056b565b925082610b2857610b27610ad3565b5b600160000383147f800000000000000000000000000000000000000000000000000000000000000083141615610b6157610b60610865565b5b828205905092915050565b6000819050919050565b6000610b8182610b6c565b91507fffffffffffffffffffffffffffffffffffffffffffffffffffffffffffffffff821415610bb457610bb3610865565b5b60018201905091905056fea2646970667358221220052ed3e7f646dcf051ea95bf0383a9d1deed244eba2d78cec77fa83966ecc6b464736f6c634300080b0033",
  "linkReferences": {},
  "deployedLinkReferences": {}
}