{
  "_format": "hh-sol-artifact-1",
  "contractName": "ConsumptionStorage",
  "sourceName": "contracts/ConsumptionStorage.sol",
  "abi": [
    {
      "inputs": [],
      "stateMutability": "nonpayable",
      "type": "constructor"
    },
    {
      "inputs": [
        {
          "internalType": "string",
          "name": "_date",
          "type": "string"
        },
        {
          "internalType": "address",
          "name": "_customer",
          "type": "address"
        }
      ],
      "name": "GetPlannedData",
      "outputs": [
        {
          "internalType": "string",
          "name": "",
          "type": "string"
        }
      ],
      "stateMutability": "view",
      "type": "function"
    },
    {
      "inputs": [
        {
          "internalType": "string",
          "name": "_hash",
          "type": "string"
        },
        {
          "internalType": "address",
          "name": "_customer",
          "type": "address"
        },
        {
          "internalType": "string",
          "name": "_date",
          "type": "string"
        }
      ],
      "name": "SetPlannedData",
      "outputs": [],
      "stateMutability": "nonpayable",
      "type": "function"
    }
  ],
  "bytecode": "0x608060405234801561001057600080fd5b50336000806101000a81548173ffffffffffffffffffffffffffffffffffffffff021916908373ffffffffffffffffffffffffffffffffffffffff16021790555061087f806100606000396000f3fe608060405234801561001057600080fd5b50600436106100365760003560e01c8063b9f2ffa91461003b578063fa13739b14610057575b600080fd5b61005560048036038101906100509190610572565b610087565b005b610071600480360381019061006c91906105fd565b610229565b60405161007e91906106e1565b60405180910390f35b6000600182604051610099919061073f565b908152602001604051809103902060008473ffffffffffffffffffffffffffffffffffffffff1673ffffffffffffffffffffffffffffffffffffffff16815260200190815260200160002080546100ef90610785565b80601f016020809104026020016040519081016040528092919081815260200182805461011b90610785565b80156101685780601f1061013d57610100808354040283529160200191610168565b820191906000526020600020905b81548152906001019060200180831161014b57829003601f168201915b5050505050905060008151146101b3576040517f08c379a00000000000000000000000000000000000000000000000000000000081526004016101aa90610829565b60405180910390fd5b836001836040516101c4919061073f565b908152602001604051809103902060008573ffffffffffffffffffffffffffffffffffffffff1673ffffffffffffffffffffffffffffffffffffffff1681526020019081526020016000209080519060200190610222929190610317565b5050505050565b606060018360405161023b919061073f565b908152602001604051809103902060008373ffffffffffffffffffffffffffffffffffffffff1673ffffffffffffffffffffffffffffffffffffffff168152602001908152602001600020805461029190610785565b80601f01602080910402602001604051908101604052809291908181526020018280546102bd90610785565b801561030a5780601f106102df5761010080835404028352916020019161030a565b820191906000526020600020905b8154815290600101906020018083116102ed57829003601f168201915b5050505050905092915050565b82805461032390610785565b90600052602060002090601f016020900481019282610345576000855561038c565b82601f1061035e57805160ff191683800117855561038c565b8280016001018555821561038c579182015b8281111561038b578251825591602001919060010190610370565b5b509050610399919061039d565b5090565b5b808211156103b657600081600090555060010161039e565b5090565b6000604051905090565b600080fd5b600080fd5b600080fd5b600080fd5b6000601f19601f8301169050919050565b7f4e487b7100000000000000000000000000000000000000000000000000000000600052604160045260246000fd5b610421826103d8565b810181811067ffffffffffffffff821117156104405761043f6103e9565b5b80604052505050565b60006104536103ba565b905061045f8282610418565b919050565b600067ffffffffffffffff82111561047f5761047e6103e9565b5b610488826103d8565b9050602081019050919050565b82818337600083830152505050565b60006104b76104b284610464565b610449565b9050828152602081018484840111156104d3576104d26103d3565b5b6104de848285610495565b509392505050565b600082601f8301126104fb576104fa6103ce565b5b813561050b8482602086016104a4565b91505092915050565b600073ffffffffffffffffffffffffffffffffffffffff82169050919050565b600061053f82610514565b9050919050565b61054f81610534565b811461055a57600080fd5b50565b60008135905061056c81610546565b92915050565b60008060006060848603121561058b5761058a6103c4565b5b600084013567ffffffffffffffff8111156105a9576105a86103c9565b5b6105b5868287016104e6565b93505060206105c68682870161055d565b925050604084013567ffffffffffffffff8111156105e7576105e66103c9565b5b6105f3868287016104e6565b9150509250925092565b60008060408385031215610614576106136103c4565b5b600083013567ffffffffffffffff811115610632576106316103c9565b5b61063e858286016104e6565b925050602061064f8582860161055d565b9150509250929050565b600081519050919050565b600082825260208201905092915050565b60005b83811015610693578082015181840152602081019050610678565b838111156106a2576000848401525b50505050565b60006106b382610659565b6106bd8185610664565b93506106cd818560208601610675565b6106d6816103d8565b840191505092915050565b600060208201905081810360008301526106fb81846106a8565b905092915050565b600081905092915050565b600061071982610659565b6107238185610703565b9350610733818560208601610675565b80840191505092915050565b600061074b828461070e565b915081905092915050565b7f4e487b7100000000000000000000000000000000000000000000000000000000600052602260045260246000fd5b6000600282049050600182168061079d57607f821691505b602082108114156107b1576107b0610756565b5b50919050565b7f546865206461746120697320616c72656164792073746f72656420666f72207460008201527f6869732064617465000000000000000000000000000000000000000000000000602082015250565b6000610813602883610664565b915061081e826107b7565b604082019050919050565b6000602082019050818103600083015261084281610806565b905091905056fea2646970667358221220bc9672ec4644f2f9417f99ef058c127109decf661d06bc70993591980d8d141264736f6c634300080b0033",
  "linkReferences": {},
  "deployedLinkReferences": {}
}